{
  "contractName": "TicketFactory",
  "abi": [
    {
      "inputs": [
        {
          "internalType": "string",
          "name": "_name",
          "type": "string"
        },
        {
          "internalType": "string",
          "name": "_symbol",
          "type": "string"
        },
        {
          "internalType": "address",
          "name": "_forwarder",
          "type": "address"
        }
      ],
      "stateMutability": "nonpayable",
      "type": "constructor"
    },
    {
      "anonymous": false,
      "inputs": [
        {
          "indexed": true,
          "internalType": "address",
          "name": "owner",
          "type": "address"
        },
        {
          "indexed": true,
          "internalType": "address",
          "name": "approved",
          "type": "address"
        },
        {
          "indexed": true,
          "internalType": "uint256",
          "name": "tokenId",
          "type": "uint256"
        }
      ],
      "name": "Approval",
      "type": "event"
    },
    {
      "anonymous": false,
      "inputs": [
        {
          "indexed": true,
          "internalType": "address",
          "name": "owner",
          "type": "address"
        },
        {
          "indexed": true,
          "internalType": "address",
          "name": "operator",
          "type": "address"
        },
        {
          "indexed": false,
          "internalType": "bool",
          "name": "approved",
          "type": "bool"
        }
      ],
      "name": "ApprovalForAll",
      "type": "event"
    },
    {
      "anonymous": false,
      "inputs": [
        {
          "indexed": false,
          "internalType": "uint256",
          "name": "experienceId",
          "type": "uint256"
        }
      ],
      "name": "ExperienceEnded",
      "type": "event"
    },
    {
      "anonymous": false,
      "inputs": [
        {
          "indexed": false,
          "internalType": "uint256",
          "name": "ticketId",
          "type": "uint256"
        },
        {
          "indexed": false,
          "internalType": "address",
          "name": "host",
          "type": "address"
        },
        {
          "indexed": false,
          "internalType": "address",
          "name": "guest",
          "type": "address"
        },
        {
          "indexed": false,
          "internalType": "uint256",
          "name": "hostExperienceAccessId",
          "type": "uint256"
        },
        {
          "indexed": false,
          "internalType": "uint256",
          "name": "guestExperienceAccessId",
          "type": "uint256"
        }
      ],
      "name": "ExperienceMatchingCreated",
      "type": "event"
    },
    {
      "anonymous": false,
      "inputs": [
        {
          "indexed": true,
          "internalType": "address",
          "name": "previousOwner",
          "type": "address"
        },
        {
          "indexed": true,
          "internalType": "address",
          "name": "newOwner",
          "type": "address"
        }
      ],
      "name": "OwnershipTransferred",
      "type": "event"
    },
    {
      "anonymous": false,
      "inputs": [
        {
          "indexed": false,
          "internalType": "address",
          "name": "addressToPay",
          "type": "address"
        },
        {
          "indexed": false,
          "internalType": "uint256",
          "name": "amountToPay",
          "type": "uint256"
        }
      ],
      "name": "PayoutSent",
      "type": "event"
    },
    {
      "anonymous": false,
      "inputs": [
        {
          "indexed": false,
          "internalType": "uint256",
          "name": "ticketId",
          "type": "uint256"
        },
        {
          "indexed": false,
          "internalType": "address",
          "name": "ticketCreator",
          "type": "address"
        },
        {
          "indexed": false,
          "internalType": "string",
          "name": "props",
          "type": "string"
        },
        {
          "indexed": false,
          "internalType": "int256",
          "name": "templateIndex",
          "type": "int256"
        }
      ],
      "name": "TicketCreated",
      "type": "event"
    },
    {
      "anonymous": false,
      "inputs": [
        {
          "indexed": true,
          "internalType": "address",
          "name": "from",
          "type": "address"
        },
        {
          "indexed": true,
          "internalType": "address",
          "name": "to",
          "type": "address"
        },
        {
          "indexed": true,
          "internalType": "uint256",
          "name": "tokenId",
          "type": "uint256"
        }
      ],
      "name": "Transfer",
      "type": "event"
    },
    {
      "inputs": [
        {
          "internalType": "address",
          "name": "to",
          "type": "address"
        },
        {
          "internalType": "uint256",
          "name": "tokenId",
          "type": "uint256"
        }
      ],
      "name": "approve",
      "outputs": [],
      "stateMutability": "nonpayable",
      "type": "function"
    },
    {
      "inputs": [
        {
          "internalType": "address",
          "name": "owner",
          "type": "address"
        }
      ],
      "name": "balanceOf",
      "outputs": [
        {
          "internalType": "uint256",
          "name": "",
          "type": "uint256"
        }
      ],
      "stateMutability": "view",
      "type": "function",
      "constant": true
    },
    {
      "inputs": [],
      "name": "baseURI",
      "outputs": [
        {
          "internalType": "string",
          "name": "",
          "type": "string"
        }
      ],
      "stateMutability": "view",
      "type": "function",
      "constant": true
    },
    {
      "inputs": [
        {
          "internalType": "uint256",
          "name": "",
          "type": "uint256"
        }
      ],
      "name": "cardsToTemplates",
      "outputs": [
        {
          "internalType": "uint256",
          "name": "",
          "type": "uint256"
        }
      ],
      "stateMutability": "view",
      "type": "function",
      "constant": true
    },
    {
      "inputs": [
        {
          "internalType": "uint256",
          "name": "",
          "type": "uint256"
        }
      ],
      "name": "expiredExperience",
      "outputs": [
        {
          "internalType": "bool",
          "name": "",
          "type": "bool"
        }
      ],
      "stateMutability": "view",
      "type": "function",
      "constant": true
    },
    {
      "inputs": [
        {
          "internalType": "uint256",
          "name": "tokenId",
          "type": "uint256"
        }
      ],
      "name": "getApproved",
      "outputs": [
        {
          "internalType": "address",
          "name": "",
          "type": "address"
        }
      ],
      "stateMutability": "view",
      "type": "function",
      "constant": true
    },
    {
      "inputs": [
        {
          "internalType": "address",
          "name": "owner",
          "type": "address"
        },
        {
          "internalType": "address",
          "name": "operator",
          "type": "address"
        }
      ],
      "name": "isApprovedForAll",
      "outputs": [
        {
          "internalType": "bool",
          "name": "",
          "type": "bool"
        }
      ],
      "stateMutability": "view",
      "type": "function",
      "constant": true
    },
    {
      "inputs": [
        {
          "internalType": "address",
          "name": "forwarder",
          "type": "address"
        }
      ],
      "name": "isTrustedForwarder",
      "outputs": [
        {
          "internalType": "bool",
          "name": "",
          "type": "bool"
        }
      ],
      "stateMutability": "view",
      "type": "function",
      "constant": true
    },
    {
      "inputs": [],
      "name": "name",
      "outputs": [
        {
          "internalType": "string",
          "name": "",
          "type": "string"
        }
      ],
      "stateMutability": "view",
      "type": "function",
      "constant": true
    },
    {
      "inputs": [],
      "name": "owner",
      "outputs": [
        {
          "internalType": "address",
          "name": "",
          "type": "address"
        }
      ],
      "stateMutability": "view",
      "type": "function",
      "constant": true
    },
    {
      "inputs": [
        {
          "internalType": "uint256",
          "name": "tokenId",
          "type": "uint256"
        }
      ],
      "name": "ownerOf",
      "outputs": [
        {
          "internalType": "address",
          "name": "",
          "type": "address"
        }
      ],
      "stateMutability": "view",
      "type": "function",
      "constant": true
    },
    {
      "inputs": [],
      "name": "renounceOwnership",
      "outputs": [],
      "stateMutability": "nonpayable",
      "type": "function"
    },
    {
      "inputs": [],
      "name": "royaltiesToken",
      "outputs": [
        {
          "internalType": "contract IntooTVRoyalty",
          "name": "",
          "type": "address"
        }
      ],
      "stateMutability": "view",
      "type": "function",
      "constant": true
    },
    {
      "inputs": [
        {
          "internalType": "address",
          "name": "from",
          "type": "address"
        },
        {
          "internalType": "address",
          "name": "to",
          "type": "address"
        },
        {
          "internalType": "uint256",
          "name": "tokenId",
          "type": "uint256"
        }
      ],
      "name": "safeTransferFrom",
      "outputs": [],
      "stateMutability": "nonpayable",
      "type": "function"
    },
    {
      "inputs": [
        {
          "internalType": "address",
          "name": "from",
          "type": "address"
        },
        {
          "internalType": "address",
          "name": "to",
          "type": "address"
        },
        {
          "internalType": "uint256",
          "name": "tokenId",
          "type": "uint256"
        },
        {
          "internalType": "bytes",
          "name": "_data",
          "type": "bytes"
        }
      ],
      "name": "safeTransferFrom",
      "outputs": [],
      "stateMutability": "nonpayable",
      "type": "function"
    },
    {
      "inputs": [
        {
          "internalType": "address",
          "name": "operator",
          "type": "address"
        },
        {
          "internalType": "bool",
          "name": "approved",
          "type": "bool"
        }
      ],
      "name": "setApprovalForAll",
      "outputs": [],
      "stateMutability": "nonpayable",
      "type": "function"
    },
    {
      "inputs": [
        {
          "internalType": "bytes4",
          "name": "interfaceId",
          "type": "bytes4"
        }
      ],
      "name": "supportsInterface",
      "outputs": [
        {
          "internalType": "bool",
          "name": "",
          "type": "bool"
        }
      ],
      "stateMutability": "view",
      "type": "function",
      "constant": true
    },
    {
      "inputs": [],
      "name": "symbol",
      "outputs": [
        {
          "internalType": "string",
          "name": "",
          "type": "string"
        }
      ],
      "stateMutability": "view",
      "type": "function",
      "constant": true
    },
    {
      "inputs": [],
      "name": "templatesRegistry",
      "outputs": [
        {
          "internalType": "contract TemplatesRegistry",
          "name": "",
          "type": "address"
        }
      ],
      "stateMutability": "view",
      "type": "function",
      "constant": true
    },
    {
      "inputs": [
        {
          "internalType": "uint256",
          "name": "",
          "type": "uint256"
        }
      ],
      "name": "ticketsToCards",
      "outputs": [
        {
          "internalType": "uint256",
          "name": "",
          "type": "uint256"
        }
      ],
      "stateMutability": "view",
      "type": "function",
      "constant": true
    },
    {
      "inputs": [
        {
          "internalType": "uint256",
          "name": "index",
          "type": "uint256"
        }
      ],
      "name": "tokenByIndex",
      "outputs": [
        {
          "internalType": "uint256",
          "name": "",
          "type": "uint256"
        }
      ],
      "stateMutability": "view",
      "type": "function",
      "constant": true
    },
    {
      "inputs": [
        {
          "internalType": "address",
          "name": "owner",
          "type": "address"
        },
        {
          "internalType": "uint256",
          "name": "index",
          "type": "uint256"
        }
      ],
      "name": "tokenOfOwnerByIndex",
      "outputs": [
        {
          "internalType": "uint256",
          "name": "",
          "type": "uint256"
        }
      ],
      "stateMutability": "view",
      "type": "function",
      "constant": true
    },
    {
      "inputs": [
        {
          "internalType": "uint256",
          "name": "tokenId",
          "type": "uint256"
        }
      ],
      "name": "tokenURI",
      "outputs": [
        {
          "internalType": "string",
          "name": "",
          "type": "string"
        }
      ],
      "stateMutability": "view",
      "type": "function",
      "constant": true
    },
    {
      "inputs": [],
      "name": "totalSupply",
      "outputs": [
        {
          "internalType": "uint256",
          "name": "",
          "type": "uint256"
        }
      ],
      "stateMutability": "view",
      "type": "function",
      "constant": true
    },
    {
      "inputs": [
        {
          "internalType": "address",
          "name": "from",
          "type": "address"
        },
        {
          "internalType": "address",
          "name": "to",
          "type": "address"
        },
        {
          "internalType": "uint256",
          "name": "tokenId",
          "type": "uint256"
        }
      ],
      "name": "transferFrom",
      "outputs": [],
      "stateMutability": "nonpayable",
      "type": "function"
    },
    {
      "inputs": [
        {
          "internalType": "address",
          "name": "newOwner",
          "type": "address"
        }
      ],
      "name": "transferOwnership",
      "outputs": [],
      "stateMutability": "nonpayable",
      "type": "function"
    },
    {
      "inputs": [],
      "name": "trustedForwarder",
      "outputs": [
        {
          "internalType": "address",
          "name": "",
          "type": "address"
        }
      ],
      "stateMutability": "view",
      "type": "function",
      "constant": true
    },
    {
      "inputs": [],
      "name": "versionRecipient",
      "outputs": [
        {
          "internalType": "string",
          "name": "",
          "type": "string"
        }
      ],
      "stateMutability": "view",
      "type": "function",
      "constant": true
    },
    {
      "inputs": [
        {
          "internalType": "address",
          "name": "_ticketCreator",
          "type": "address"
        },
        {
          "internalType": "string",
          "name": "_props",
          "type": "string"
        },
        {
          "internalType": "int256",
          "name": "_templateIndex",
          "type": "int256"
        },
        {
          "internalType": "bool",
          "name": "_saveAsTemplate",
          "type": "bool"
        }
      ],
      "name": "createTicket",
      "outputs": [
        {
          "internalType": "uint256",
          "name": "",
          "type": "uint256"
        }
      ],
      "stateMutability": "payable",
      "type": "function",
      "payable": true
    },
    {
      "inputs": [
        {
          "internalType": "uint256",
          "name": "_ticketId",
          "type": "uint256"
        },
        {
          "internalType": "string",
          "name": "_props",
          "type": "string"
        },
        {
          "internalType": "address",
          "name": "host",
          "type": "address"
        }
      ],
      "name": "createAccessToEvent",
      "outputs": [
        {
          "internalType": "bool",
          "name": "",
          "type": "bool"
        }
      ],
      "stateMutability": "nonpayable",
      "type": "function"
    },
    {
      "inputs": [
        {
          "internalType": "address",
          "name": "owner",
          "type": "address"
        },
        {
          "internalType": "uint256",
          "name": "_ticketId",
          "type": "uint256"
        }
      ],
      "name": "expireExperience",
      "outputs": [],
      "stateMutability": "nonpayable",
      "type": "function"
    }
  ],
  "bytecode": "0x60806040526040518060400160405280600581526020017f322e302e30000000000000000000000000000000000000000000000000000000815250600d90805190602001906200005192919062000485565b503480156200005f57600080fd5b5060405162007d0638038062007d068339818101604052810190620000859190620005ba565b82826000620000996200030b60201b60201c565b905080600160006101000a81548173ffffffffffffffffffffffffffffffffffffffff021916908373ffffffffffffffffffffffffffffffffffffffff1602179055508073ffffffffffffffffffffffffffffffffffffffff16600073ffffffffffffffffffffffffffffffffffffffff167f8be0079c531659141344cd1fd0a4f28419497f9722a3daafe3b4186f6b6457e060405160405180910390a350620001506301ffc9a760e01b6200035360201b60201c565b81600890805190602001906200016892919062000485565b5080600990805190602001906200018192919062000485565b506200019a6380ac58cd60e01b6200035360201b60201c565b620001b2635b5e139f60e01b6200035360201b60201c565b620001ca63780e9d6360e01b6200035360201b60201c565b50506001600c81905550806000806101000a81548173ffffffffffffffffffffffffffffffffffffffff021916908373ffffffffffffffffffffffffffffffffffffffff16021790555060405162000222906200050c565b604051809103906000f0801580156200023f573d6000803e3d6000fd5b50601360006101000a81548173ffffffffffffffffffffffffffffffffffffffff021916908373ffffffffffffffffffffffffffffffffffffffff160217905550681b1ae4d6e2ef50000060405162000298906200051a565b620002a4919062000695565b604051809103906000f080158015620002c1573d6000803e3d6000fd5b50601460006101000a81548173ffffffffffffffffffffffffffffffffffffffff021916908373ffffffffffffffffffffffffffffffffffffffff160217905550505050620007e2565b600060186000369050101580156200033057506200032f336200042c60201b60201c565b5b156200034657601436033560601c90506200034f565b33905062000350565b5b90565b63ffffffff60e01b817bffffffffffffffffffffffffffffffffffffffffffffffffffffffff19161415620003bf576040517f08c379a0000000000000000000000000000000000000000000000000000000008152600401620003b690620006b2565b60405180910390fd5b600160026000837bffffffffffffffffffffffffffffffffffffffffffffffffffffffff19167bffffffffffffffffffffffffffffffffffffffffffffffffffffffff1916815260200190815260200160002060006101000a81548160ff02191690831515021790555050565b60008060009054906101000a900473ffffffffffffffffffffffffffffffffffffffff1673ffffffffffffffffffffffffffffffffffffffff168273ffffffffffffffffffffffffffffffffffffffff16149050919050565b828054600181600116156101000203166002900490600052602060002090601f016020900481019282601f10620004c857805160ff1916838001178555620004f9565b82800160010185558215620004f9579182015b82811115620004f8578251825591602001919060010190620004db565b5b50905062000508919062000528565b5090565b61156a806200527f83390190565b61151d80620067e983390190565b5b808211156200054357600081600090555060010162000529565b5090565b6000815190506200055881620007c8565b92915050565b600082601f8301126200057057600080fd5b815162000587620005818262000702565b620006d4565b91508082526020830160208301858383011115620005a457600080fd5b620005b183828462000792565b50505092915050565b600080600060608486031215620005d057600080fd5b600084015167ffffffffffffffff811115620005eb57600080fd5b620005f9868287016200055e565b935050602084015167ffffffffffffffff8111156200061757600080fd5b62000625868287016200055e565b9250506040620006388682870162000547565b9150509250925092565b6200064d816200077e565b82525050565b600062000662601c836200072f565b91507f4552433136353a20696e76616c696420696e74657266616365206964000000006000830152602082019050919050565b6000602082019050620006ac600083018462000642565b92915050565b60006020820190508181036000830152620006cd8162000653565b9050919050565b6000604051905081810181811067ffffffffffffffff82111715620006f857600080fd5b8060405250919050565b600067ffffffffffffffff8211156200071a57600080fd5b601f19601f8301169050602081019050919050565b600082825260208201905092915050565b60006200074d8262000754565b9050919050565b600073ffffffffffffffffffffffffffffffffffffffff82169050919050565b6000819050919050565b60006200078b8262000774565b9050919050565b60005b83811015620007b257808201518184015260208101905062000795565b83811115620007c2576000848401525b50505050565b620007d38162000740565b8114620007df57600080fd5b50565b614a8d80620007f26000396000f3fe6080604052600436106101d85760003560e01c806370a0823111610102578063b83acc5311610095578063e985e9c511610064578063e985e9c514610711578063eef571a61461074e578063f2fde38b14610779578063fadf7ab0146107a2576101d8565b8063b83acc5314610643578063b88d4fde1461066e578063be8b3f6814610697578063c87b56dd146106d4576101d8565b80638da5cb5b116100d15780638da5cb5b1461059457806395d89b41146105bf578063a22cb465146105ea578063b5e1612314610613576101d8565b806370a08231146104d8578063715018a6146105155780637da0a8771461052c57806387bedcfb14610557576101d8565b80632f745c591161017a578063572b6c0511610149578063572b6c05146103f65780636352211e146104335780636c0360eb146104705780636c22f6101461049b576101d8565b80632f745c591461032857806342842e0e14610365578063486ff0cd1461038e5780634f6ccce7146103b9576101d8565b8063095ea7b3116101b6578063095ea7b31461028257806313434deb146102ab57806318160ddd146102d457806323b872dd146102ff576101d8565b806301ffc9a7146101dd57806306fdde031461021a578063081812fc14610245575b600080fd5b3480156101e957600080fd5b5061020460048036038101906101ff919061363b565b6107df565b60405161021191906142de565b60405180910390f35b34801561022657600080fd5b5061022f610847565b60405161023c919061432f565b60405180910390f35b34801561025157600080fd5b5061026c6004803603810190610267919061368d565b6108e9565b604051610279919061421e565b60405180910390f35b34801561028e57600080fd5b506102a960048036038101906102a491906135d6565b61096e565b005b3480156102b757600080fd5b506102d260048036038101906102cd91906135d6565b610a86565b005b3480156102e057600080fd5b506102e9610ce8565b6040516102f691906146d1565b60405180910390f35b34801561030b57600080fd5b5061032660048036038101906103219190613401565b610cf9565b005b34801561033457600080fd5b5061034f600480360381019061034a91906135d6565b610d59565b60405161035c91906146d1565b60405180910390f35b34801561037157600080fd5b5061038c60048036038101906103879190613401565b610db4565b005b34801561039a57600080fd5b506103a3610dd4565b6040516103b0919061432f565b60405180910390f35b3480156103c557600080fd5b506103e060048036038101906103db919061368d565b610e72565b6040516103ed91906146d1565b60405180910390f35b34801561040257600080fd5b5061041d6004803603810190610418919061339c565b610e95565b60405161042a91906142de565b60405180910390f35b34801561043f57600080fd5b5061045a6004803603810190610455919061368d565b610eee565b604051610467919061421e565b60405180910390f35b34801561047c57600080fd5b50610485610f25565b604051610492919061432f565b60405180910390f35b3480156104a757600080fd5b506104c260048036038101906104bd91906136df565b610fc7565b6040516104cf91906142de565b60405180910390f35b3480156104e457600080fd5b506104ff60048036038101906104fa919061339c565b61119e565b60405161050c91906146d1565b60405180910390f35b34801561052157600080fd5b5061052a61125d565b005b34801561053857600080fd5b5061054161139a565b60405161054e919061421e565b60405180910390f35b34801561056357600080fd5b5061057e6004803603810190610579919061368d565b6113be565b60405161058b91906146d1565b60405180910390f35b3480156105a057600080fd5b506105a96113d6565b6040516105b6919061421e565b60405180910390f35b3480156105cb57600080fd5b506105d4611400565b6040516105e1919061432f565b60405180910390f35b3480156105f657600080fd5b50610611600480360381019061060c91906134cb565b6114a2565b005b61062d6004803603810190610628919061355b565b611623565b60405161063a91906146d1565b60405180910390f35b34801561064f57600080fd5b50610658611ba1565b6040516106659190614314565b60405180910390f35b34801561067a57600080fd5b5061069560048036038101906106909190613450565b611bc7565b005b3480156106a357600080fd5b506106be60048036038101906106b9919061368d565b611c29565b6040516106cb91906146d1565b60405180910390f35b3480156106e057600080fd5b506106fb60048036038101906106f6919061368d565b611c41565b604051610708919061432f565b60405180910390f35b34801561071d57600080fd5b50610738600480360381019061073391906133c5565b611dc4565b60405161074591906142de565b60405180910390f35b34801561075a57600080fd5b50610763611e58565b60405161077091906142f9565b60405180910390f35b34801561078557600080fd5b506107a0600480360381019061079b919061339c565b611e7e565b005b3480156107ae57600080fd5b506107c960048036038101906107c4919061368d565b61202a565b6040516107d691906142de565b60405180910390f35b600060026000837bffffffffffffffffffffffffffffffffffffffffffffffffffffffff19167bffffffffffffffffffffffffffffffffffffffffffffffffffffffff1916815260200190815260200160002060009054906101000a900460ff169050919050565b606060088054600181600116156101000203166002900480601f0160208091040260200160405190810160405280929190818152602001828054600181600116156101000203166002900480156108df5780601f106108b4576101008083540402835291602001916108df565b820191906000526020600020905b8154815290600101906020018083116108c257829003601f168201915b5050505050905090565b60006108f48261204a565b610933576040517f08c379a000000000000000000000000000000000000000000000000000000000815260040161092a90614551565b60405180910390fd5b6006600083815260200190815260200160002060009054906101000a900473ffffffffffffffffffffffffffffffffffffffff169050919050565b600061097982610eee565b90508073ffffffffffffffffffffffffffffffffffffffff168373ffffffffffffffffffffffffffffffffffffffff1614156109ea576040517f08c379a00000000000000000000000000000000000000000000000000000000081526004016109e190614611565b60405180910390fd5b8073ffffffffffffffffffffffffffffffffffffffff16610a09612067565b73ffffffffffffffffffffffffffffffffffffffff161480610a385750610a3781610a32612067565b611dc4565b5b610a77576040517f08c379a0000000000000000000000000000000000000000000000000000000008152600401610a6e90614491565b60405180910390fd5b610a8183836120a3565b505050565b6002600c541415610acc576040517f08c379a0000000000000000000000000000000000000000000000000000000008152600401610ac390614691565b60405180910390fd5b6002600c81905550610adc612067565b73ffffffffffffffffffffffffffffffffffffffff16610afa6113d6565b73ffffffffffffffffffffffffffffffffffffffff1614610b50576040517f08c379a0000000000000000000000000000000000000000000000000000000008152600401610b4790614591565b60405180910390fd5b610b5a600e61215c565b811115610b9c576040517f08c379a0000000000000000000000000000000000000000000000000000000008152600401610b93906144f1565b60405180910390fd5b60001515600f600083815260200190815260200160002060009054906101000a900460ff16151514610c03576040517f08c379a0000000000000000000000000000000000000000000000000000000008152600401610bfa906145f1565b60405180910390fd5b8173ffffffffffffffffffffffffffffffffffffffff16610c2382610eee565b73ffffffffffffffffffffffffffffffffffffffff1614610c79576040517f08c379a0000000000000000000000000000000000000000000000000000000008152600401610c70906144b1565b60405180910390fd5b6001600f600083815260200190815260200160002060006101000a81548160ff0219169083151502179055507fc432839f0712eaa49b2945ec7930a3e3d81451f1c289bf854e828f86d515530181604051610cd491906146d1565b60405180910390a16001600c819055505050565b6000610cf4600461216a565b905090565b610d0a610d04612067565b8261217f565b610d49576040517f08c379a0000000000000000000000000000000000000000000000000000000008152600401610d4090614651565b60405180910390fd5b610d5483838361225d565b505050565b6000610dac82600360008673ffffffffffffffffffffffffffffffffffffffff1673ffffffffffffffffffffffffffffffffffffffff16815260200190815260200160002061247490919063ffffffff16565b905092915050565b610dcf83838360405180602001604052806000815250611bc7565b505050565b600d8054600181600116156101000203166002900480601f016020809104026020016040519081016040528092919081815260200182805460018160011615610100020316600290048015610e6a5780601f10610e3f57610100808354040283529160200191610e6a565b820191906000526020600020905b815481529060010190602001808311610e4d57829003601f168201915b505050505081565b600080610e8983600461248e90919063ffffffff16565b50905080915050919050565b60008060009054906101000a900473ffffffffffffffffffffffffffffffffffffffff1673ffffffffffffffffffffffffffffffffffffffff168273ffffffffffffffffffffffffffffffffffffffff16149050919050565b6000610f1e82604051806060016040528060298152602001614a2f6029913960046124ba9092919063ffffffff16565b9050919050565b6060600b8054600181600116156101000203166002900480601f016020809104026020016040519081016040528092919081815260200182805460018160011615610100020316600290048015610fbd5780601f10610f9257610100808354040283529160200191610fbd565b820191906000526020600020905b815481529060010190602001808311610fa057829003601f168201915b5050505050905090565b60006002600c54141561100f576040517f08c379a000000000000000000000000000000000000000000000000000000000815260040161100690614691565b60405180910390fd5b6002600c81905550611021600e61215c565b841115611063576040517f08c379a000000000000000000000000000000000000000000000000000000000815260040161105a90614371565b60405180910390fd5b60001515600f600086815260200190815260200160002060009054906101000a900460ff161515146110ca576040517f08c379a00000000000000000000000000000000000000000000000000000000081526004016110c190614631565b60405180910390fd5b6110d4600e6124d9565b60006110e0600e61215c565b90506110ec600e6124d9565b60006110f8600e61215c565b905061110484836124ef565b61111661111087610eee565b826124ef565b856010600083815260200190815260200160002081905550611138828661267d565b611142818661267d565b7f2ddfe7b6f9d2388d2be5c2c76a71d25099602a87f76cce9df46d331f926e4277868561116e89610eee565b85856040516111819594939291906146ec565b60405180910390a16001925050506001600c819055509392505050565b60008073ffffffffffffffffffffffffffffffffffffffff168273ffffffffffffffffffffffffffffffffffffffff16141561120f576040517f08c379a0000000000000000000000000000000000000000000000000000000008152600401611206906144d1565b60405180910390fd5b611256600360008473ffffffffffffffffffffffffffffffffffffffff1673ffffffffffffffffffffffffffffffffffffffff1681526020019081526020016000206126f1565b9050919050565b611265612067565b73ffffffffffffffffffffffffffffffffffffffff166112836113d6565b73ffffffffffffffffffffffffffffffffffffffff16146112d9576040517f08c379a00000000000000000000000000000000000000000000000000000000081526004016112d090614591565b60405180910390fd5b600073ffffffffffffffffffffffffffffffffffffffff16600160009054906101000a900473ffffffffffffffffffffffffffffffffffffffff1673ffffffffffffffffffffffffffffffffffffffff167f8be0079c531659141344cd1fd0a4f28419497f9722a3daafe3b4186f6b6457e060405160405180910390a36000600160006101000a81548173ffffffffffffffffffffffffffffffffffffffff021916908373ffffffffffffffffffffffffffffffffffffffff160217905550565b60008054906101000a900473ffffffffffffffffffffffffffffffffffffffff1681565b60116020528060005260406000206000915090505481565b6000600160009054906101000a900473ffffffffffffffffffffffffffffffffffffffff16905090565b606060098054600181600116156101000203166002900480601f0160208091040260200160405190810160405280929190818152602001828054600181600116156101000203166002900480156114985780601f1061146d57610100808354040283529160200191611498565b820191906000526020600020905b81548152906001019060200180831161147b57829003601f168201915b5050505050905090565b6114aa612067565b73ffffffffffffffffffffffffffffffffffffffff168273ffffffffffffffffffffffffffffffffffffffff161415611518576040517f08c379a000000000000000000000000000000000000000000000000000000000815260040161150f90614431565b60405180910390fd5b8060076000611525612067565b73ffffffffffffffffffffffffffffffffffffffff1673ffffffffffffffffffffffffffffffffffffffff16815260200190815260200160002060008473ffffffffffffffffffffffffffffffffffffffff1673ffffffffffffffffffffffffffffffffffffffff16815260200190815260200160002060006101000a81548160ff0219169083151502179055508173ffffffffffffffffffffffffffffffffffffffff166115d2612067565b73ffffffffffffffffffffffffffffffffffffffff167f17307eab39ab6107e8899845ad3d59bd9653f200f220920489ca2b5937696c318360405161161791906142de565b60405180910390a35050565b60006002600c54141561166b576040517f08c379a000000000000000000000000000000000000000000000000000000000815260040161166290614691565b60405180910390fd5b6002600c8190555061167b612067565b73ffffffffffffffffffffffffffffffffffffffff166116996113d6565b73ffffffffffffffffffffffffffffffffffffffff16146116ef576040517f08c379a00000000000000000000000000000000000000000000000000000000081526004016116e690614591565b60405180910390fd5b600083138015611703575060011515821515145b15611743576040517f08c379a000000000000000000000000000000000000000000000000000000000815260040161173a906146b1565b60405180910390fd5b61174d600e6124d9565b6000611759600e61215c565b905061176586826124ef565b6000841361177c57611777818661267d565b611a93565b601360009054906101000a900473ffffffffffffffffffffffffffffffffffffffff1673ffffffffffffffffffffffffffffffffffffffff1663430e9f686040518163ffffffff1660e01b815260040160206040518083038186803b1580156117e457600080fd5b505afa1580156117f8573d6000803e3d6000fd5b505050506040513d601f19601f8201168201806040525081019061181c91906136b6565b841015611a575760006060601360009054906101000a900473ffffffffffffffffffffffffffffffffffffffff1673ffffffffffffffffffffffffffffffffffffffff1663a20b8d5d876040518263ffffffff1660e01b815260040161188291906146d1565b60006040518083038186803b15801561189a57600080fd5b505afa1580156118ae573d6000803e3d6000fd5b505050506040513d6000823e3d601f19601f820116820180604052508101906118d79190613507565b915091506118e5838261267d565b8560116000858152602001908152602001600020819055506005601360009054906101000a900473ffffffffffffffffffffffffffffffffffffffff1673ffffffffffffffffffffffffffffffffffffffff1663314c1271886040518263ffffffff1660e01b815260040161195a91906146d1565b60206040518083038186803b15801561197257600080fd5b505afa158015611986573d6000803e3d6000fd5b505050506040513d601f19601f820116820180604052508101906119aa91906136b6565b10156119c3576119c282670de0b6b3a7640000612706565b5b601360009054906101000a900473ffffffffffffffffffffffffffffffffffffffff1673ffffffffffffffffffffffffffffffffffffffff16637f61c5f4876040518263ffffffff1660e01b8152600401611a1e91906146d1565b600060405180830381600087803b158015611a3857600080fd5b505af1158015611a4c573d6000803e3d6000fd5b505050505050611a92565b6040517f08c379a0000000000000000000000000000000000000000000000000000000008152600401611a8990614391565b60405180910390fd5b5b600115158315151415611b5057601360009054906101000a900473ffffffffffffffffffffffffffffffffffffffff1673ffffffffffffffffffffffffffffffffffffffff1662d463c787876040518363ffffffff1660e01b8152600401611afc929190614285565b602060405180830381600087803b158015611b1657600080fd5b505af1158015611b2a573d6000803e3d6000fd5b505050506040513d601f19601f82011682018060405250810190611b4e91906136b6565b505b7f69d0b091bb40a707521cd69f4414de1d27e2e1a1ada0696dded2085ea7bd5c3881878787604051611b85949392919061473f565b60405180910390a1809150506001600c81905550949350505050565b601360009054906101000a900473ffffffffffffffffffffffffffffffffffffffff1681565b611bd8611bd2612067565b8361217f565b611c17576040517f08c379a0000000000000000000000000000000000000000000000000000000008152600401611c0e90614651565b60405180910390fd5b611c23848484846127f3565b50505050565b60106020528060005260406000206000915090505481565b6060611c4c8261204a565b611c8b576040517f08c379a0000000000000000000000000000000000000000000000000000000008152600401611c82906145d1565b60405180910390fd5b6060600a60008481526020019081526020016000208054600181600116156101000203166002900480601f016020809104026020016040519081016040528092919081815260200182805460018160011615610100020316600290048015611d345780601f10611d0957610100808354040283529160200191611d34565b820191906000526020600020905b815481529060010190602001808311611d1757829003601f168201915b505050505090506060611d45610f25565b9050600081511415611d5b578192505050611dbf565b600082511115611d90578082604051602001611d789291906141fa565b60405160208183030381529060405292505050611dbf565b80611d9a8561284f565b604051602001611dab9291906141fa565b604051602081830303815290604052925050505b919050565b6000600760008473ffffffffffffffffffffffffffffffffffffffff1673ffffffffffffffffffffffffffffffffffffffff16815260200190815260200160002060008373ffffffffffffffffffffffffffffffffffffffff1673ffffffffffffffffffffffffffffffffffffffff16815260200190815260200160002060009054906101000a900460ff16905092915050565b601460009054906101000a900473ffffffffffffffffffffffffffffffffffffffff1681565b611e86612067565b73ffffffffffffffffffffffffffffffffffffffff16611ea46113d6565b73ffffffffffffffffffffffffffffffffffffffff1614611efa576040517f08c379a0000000000000000000000000000000000000000000000000000000008152600401611ef190614591565b60405180910390fd5b600073ffffffffffffffffffffffffffffffffffffffff168173ffffffffffffffffffffffffffffffffffffffff161415611f6a576040517f08c379a0000000000000000000000000000000000000000000000000000000008152600401611f61906143d1565b60405180910390fd5b8073ffffffffffffffffffffffffffffffffffffffff16600160009054906101000a900473ffffffffffffffffffffffffffffffffffffffff1673ffffffffffffffffffffffffffffffffffffffff167f8be0079c531659141344cd1fd0a4f28419497f9722a3daafe3b4186f6b6457e060405160405180910390a380600160006101000a81548173ffffffffffffffffffffffffffffffffffffffff021916908373ffffffffffffffffffffffffffffffffffffffff16021790555050565b600f6020528060005260406000206000915054906101000a900460ff1681565b600061206082600461299690919063ffffffff16565b9050919050565b60006018600036905010158015612083575061208233610e95565b5b1561209757601436033560601c905061209f565b3390506120a0565b5b90565b816006600083815260200190815260200160002060006101000a81548173ffffffffffffffffffffffffffffffffffffffff021916908373ffffffffffffffffffffffffffffffffffffffff160217905550808273ffffffffffffffffffffffffffffffffffffffff1661211683610eee565b73ffffffffffffffffffffffffffffffffffffffff167f8c5be1e5ebec7d5bd14f71427d1e84f3dd0314c0f7b2291e5b200ac8c7c3b92560405160405180910390a45050565b600081600001549050919050565b6000612178826000016129b0565b9050919050565b600061218a8261204a565b6121c9576040517f08c379a00000000000000000000000000000000000000000000000000000000081526004016121c090614471565b60405180910390fd5b60006121d483610eee565b90508073ffffffffffffffffffffffffffffffffffffffff168473ffffffffffffffffffffffffffffffffffffffff16148061224357508373ffffffffffffffffffffffffffffffffffffffff1661222b846108e9565b73ffffffffffffffffffffffffffffffffffffffff16145b8061225457506122538185611dc4565b5b91505092915050565b8273ffffffffffffffffffffffffffffffffffffffff1661227d82610eee565b73ffffffffffffffffffffffffffffffffffffffff16146122d3576040517f08c379a00000000000000000000000000000000000000000000000000000000081526004016122ca906145b1565b60405180910390fd5b600073ffffffffffffffffffffffffffffffffffffffff168273ffffffffffffffffffffffffffffffffffffffff161415612343576040517f08c379a000000000000000000000000000000000000000000000000000000000815260040161233a90614411565b60405180910390fd5b61234e8383836129c1565b6123596000826120a3565b6123aa81600360008673ffffffffffffffffffffffffffffffffffffffff1673ffffffffffffffffffffffffffffffffffffffff1681526020019081526020016000206129c690919063ffffffff16565b506123fc81600360008573ffffffffffffffffffffffffffffffffffffffff1673ffffffffffffffffffffffffffffffffffffffff1681526020019081526020016000206129e090919063ffffffff16565b50612413818360046129fa9092919063ffffffff16565b50808273ffffffffffffffffffffffffffffffffffffffff168473ffffffffffffffffffffffffffffffffffffffff167fddf252ad1be2c89b69c2b068fc378daa952ba7f163c4a11628f55a4df523b3ef60405160405180910390a4505050565b60006124838360000183612a2f565b60001c905092915050565b6000806000806124a18660000186612a9c565b915091508160001c8160001c9350935050509250929050565b60006124cd846000018460001b84612b1f565b60001c90509392505050565b6001816000016000828254019250508190555050565b600073ffffffffffffffffffffffffffffffffffffffff168273ffffffffffffffffffffffffffffffffffffffff16141561255f576040517f08c379a000000000000000000000000000000000000000000000000000000000815260040161255690614531565b60405180910390fd5b6125688161204a565b156125a8576040517f08c379a000000000000000000000000000000000000000000000000000000000815260040161259f906143f1565b60405180910390fd5b6125b4600083836129c1565b61260581600360008573ffffffffffffffffffffffffffffffffffffffff1673ffffffffffffffffffffffffffffffffffffffff1681526020019081526020016000206129e090919063ffffffff16565b5061261c818360046129fa9092919063ffffffff16565b50808273ffffffffffffffffffffffffffffffffffffffff16600073ffffffffffffffffffffffffffffffffffffffff167fddf252ad1be2c89b69c2b068fc378daa952ba7f163c4a11628f55a4df523b3ef60405160405180910390a45050565b6126868261204a565b6126c5576040517f08c379a00000000000000000000000000000000000000000000000000000000081526004016126bc90614571565b60405180910390fd5b80600a600084815260200190815260200160002090805190602001906126ec929190613146565b505050565b60006126ff82600001612bb0565b9050919050565b601460009054906101000a900473ffffffffffffffffffffffffffffffffffffffff1673ffffffffffffffffffffffffffffffffffffffff1663a9059cbb83836040518363ffffffff1660e01b81526004016127639291906142b5565b602060405180830381600087803b15801561277d57600080fd5b505af1158015612791573d6000803e3d6000fd5b505050506040513d601f19601f820116820180604052508101906127b59190613612565b507f6c114f03096d92b098f0f087d8fd4a756d362d86a9649a07142404e7fd1d77b582826040516127e79291906142b5565b60405180910390a15050565b6127fe84848461225d565b61280a84848484612bc1565b612849576040517f08c379a0000000000000000000000000000000000000000000000000000000008152600401612840906143b1565b60405180910390fd5b50505050565b60606000821415612897576040518060400160405280600181526020017f30000000000000000000000000000000000000000000000000000000000000008152509050612991565b600082905060005b600082146128c1578080600101915050600a82816128b957fe5b04915061289f565b60608167ffffffffffffffff811180156128da57600080fd5b506040519080825280601f01601f19166020018201604052801561290d5781602001600182028036833780820191505090505b50905060006001830390508593505b6000841461298957600a848161292e57fe5b0660300160f81b8282806001900393508151811061294857fe5b60200101907effffffffffffffffffffffffffffffffffffffffffffffffffffffffffffff1916908160001a905350600a848161298157fe5b04935061291c565b819450505050505b919050565b60006129a8836000018360001b612d25565b905092915050565b600081600001805490509050919050565b505050565b60006129d8836000018360001b612d48565b905092915050565b60006129f2836000018360001b612e30565b905092915050565b6000612a26846000018460001b8473ffffffffffffffffffffffffffffffffffffffff1660001b612ea0565b90509392505050565b600081836000018054905011612a7a576040517f08c379a0000000000000000000000000000000000000000000000000000000008152600401612a7190614351565b60405180910390fd5b826000018281548110612a8957fe5b9060005260206000200154905092915050565b60008082846000018054905011612ae8576040517f08c379a0000000000000000000000000000000000000000000000000000000008152600401612adf90614511565b60405180910390fd5b6000846000018481548110612af957fe5b906000526020600020906002020190508060000154816001015492509250509250929050565b60008084600101600085815260200190815260200160002054905060008114158390612b81576040517f08c379a0000000000000000000000000000000000000000000000000000000008152600401612b78919061432f565b60405180910390fd5b50846000016001820381548110612b9457fe5b9060005260206000209060020201600101549150509392505050565b600081600001805490509050919050565b6000612be28473ffffffffffffffffffffffffffffffffffffffff16612f7c565b612bef5760019050612d1d565b6060612cb663150b7a0260e01b612c04612067565b888787604051602401612c1a9493929190614239565b604051602081830303815290604052907bffffffffffffffffffffffffffffffffffffffffffffffffffffffff19166020820180517bffffffffffffffffffffffffffffffffffffffffffffffffffffffff83818316178352505050506040518060600160405280603281526020016149fd603291398773ffffffffffffffffffffffffffffffffffffffff16612f8f9092919063ffffffff16565b9050600081806020019051810190612cce9190613664565b905063150b7a0260e01b7bffffffffffffffffffffffffffffffffffffffffffffffffffffffff1916817bffffffffffffffffffffffffffffffffffffffffffffffffffffffff191614925050505b949350505050565b600080836001016000848152602001908152602001600020541415905092915050565b60008083600101600084815260200190815260200160002054905060008114612e245760006001820390506000600186600001805490500390506000866000018281548110612d9357fe5b9060005260206000200154905080876000018481548110612db057fe5b9060005260206000200181905550600183018760010160008381526020019081526020016000208190555086600001805480612de857fe5b60019003818190600052602060002001600090559055866001016000878152602001908152602001600020600090556001945050505050612e2a565b60009150505b92915050565b6000612e3c8383612fa7565b612e95578260000182908060018154018082558091505060019003906000526020600020016000909190919091505582600001805490508360010160008481526020019081526020016000208190555060019050612e9a565b600090505b92915050565b6000808460010160008581526020019081526020016000205490506000811415612f4757846000016040518060400160405280868152602001858152509080600181540180825580915050600190039060005260206000209060020201600090919091909150600082015181600001556020820151816001015550508460000180549050856001016000868152602001908152602001600020819055506001915050612f75565b82856000016001830381548110612f5a57fe5b90600052602060002090600202016001018190555060009150505b9392505050565b600080823b905060008111915050919050565b6060612f9e8484600085612fca565b90509392505050565b600080836001016000848152602001908152602001600020541415905092915050565b60608247101561300f576040517f08c379a000000000000000000000000000000000000000000000000000000000815260040161300690614451565b60405180910390fd5b61301885612f7c565b613057576040517f08c379a000000000000000000000000000000000000000000000000000000000815260040161304e90614671565b60405180910390fd5b600060608673ffffffffffffffffffffffffffffffffffffffff16858760405161308191906141e3565b60006040518083038185875af1925050503d80600081146130be576040519150601f19603f3d011682016040523d82523d6000602084013e6130c3565b606091505b50915091506130d38282866130df565b92505050949350505050565b606083156130ef5782905061313f565b6000835111156131025782518084602001fd5b816040517f08c379a0000000000000000000000000000000000000000000000000000000008152600401613136919061432f565b60405180910390fd5b9392505050565b828054600181600116156101000203166002900490600052602060002090601f016020900481019282601f1061318757805160ff19168380011785556131b5565b828001600101855582156131b5579182015b828111156131b4578251825591602001919060010190613199565b5b5090506131c291906131c6565b5090565b5b808211156131df5760008160009055506001016131c7565b5090565b6000813590506131f281614989565b92915050565b60008151905061320781614989565b92915050565b60008135905061321c816149a0565b92915050565b600081519050613231816149a0565b92915050565b600081359050613246816149b7565b92915050565b60008151905061325b816149b7565b92915050565b600082601f83011261327257600080fd5b8135613285613280826147b8565b61478b565b915080825260208301602083018583830111156132a157600080fd5b6132ac838284614936565b50505092915050565b6000813590506132c4816149ce565b92915050565b600082601f8301126132db57600080fd5b81356132ee6132e9826147e4565b61478b565b9150808252602083016020830185838301111561330a57600080fd5b613315838284614936565b50505092915050565b600082601f83011261332f57600080fd5b815161334261333d826147e4565b61478b565b9150808252602083016020830185838301111561335e57600080fd5b613369838284614945565b50505092915050565b600081359050613381816149e5565b92915050565b600081519050613396816149e5565b92915050565b6000602082840312156133ae57600080fd5b60006133bc848285016131e3565b91505092915050565b600080604083850312156133d857600080fd5b60006133e6858286016131e3565b92505060206133f7858286016131e3565b9150509250929050565b60008060006060848603121561341657600080fd5b6000613424868287016131e3565b9350506020613435868287016131e3565b925050604061344686828701613372565b9150509250925092565b6000806000806080858703121561346657600080fd5b6000613474878288016131e3565b9450506020613485878288016131e3565b935050604061349687828801613372565b925050606085013567ffffffffffffffff8111156134b357600080fd5b6134bf87828801613261565b91505092959194509250565b600080604083850312156134de57600080fd5b60006134ec858286016131e3565b92505060206134fd8582860161320d565b9150509250929050565b6000806040838503121561351a57600080fd5b6000613528858286016131f8565b925050602083015167ffffffffffffffff81111561354557600080fd5b6135518582860161331e565b9150509250929050565b6000806000806080858703121561357157600080fd5b600061357f878288016131e3565b945050602085013567ffffffffffffffff81111561359c57600080fd5b6135a8878288016132ca565b93505060406135b9878288016132b5565b92505060606135ca8782880161320d565b91505092959194509250565b600080604083850312156135e957600080fd5b60006135f7858286016131e3565b925050602061360885828601613372565b9150509250929050565b60006020828403121561362457600080fd5b600061363284828501613222565b91505092915050565b60006020828403121561364d57600080fd5b600061365b84828501613237565b91505092915050565b60006020828403121561367657600080fd5b60006136848482850161324c565b91505092915050565b60006020828403121561369f57600080fd5b60006136ad84828501613372565b91505092915050565b6000602082840312156136c857600080fd5b60006136d684828501613387565b91505092915050565b6000806000606084860312156136f457600080fd5b600061370286828701613372565b935050602084013567ffffffffffffffff81111561371f57600080fd5b61372b868287016132ca565b925050604061373c868287016131e3565b9150509250925092565b61374f81614870565b82525050565b61375e8161485e565b82525050565b61376d81614882565b82525050565b600061377e82614810565b6137888185614826565b9350613798818560208601614945565b6137a181614978565b840191505092915050565b60006137b782614810565b6137c18185614837565b93506137d1818560208601614945565b80840191505092915050565b6137e6816148ee565b82525050565b6137f581614912565b82525050565b613804816148ba565b82525050565b60006138158261481b565b61381f8185614842565b935061382f818560208601614945565b61383881614978565b840191505092915050565b600061384e8261481b565b6138588185614853565b9350613868818560208601614945565b80840191505092915050565b6000613881602283614842565b91507f456e756d657261626c655365743a20696e646578206f7574206f6620626f756e60008301527f64730000000000000000000000000000000000000000000000000000000000006020830152604082019050919050565b60006138e7601783614842565b91507f6e6f207375636820657870657269656e636520636172640000000000000000006000830152602082019050919050565b6000613927601f83614842565b91507f496e76616c69642074656d706c61746520696e6465782070726f7669646564006000830152602082019050919050565b6000613967603283614842565b91507f4552433732313a207472616e7366657220746f206e6f6e20455243373231526560008301527f63656976657220696d706c656d656e74657200000000000000000000000000006020830152604082019050919050565b60006139cd602683614842565b91507f4f776e61626c653a206e6577206f776e657220697320746865207a65726f206160008301527f64647265737300000000000000000000000000000000000000000000000000006020830152604082019050919050565b6000613a33601c83614842565b91507f4552433732313a20746f6b656e20616c7265616479206d696e746564000000006000830152602082019050919050565b6000613a73602483614842565b91507f4552433732313a207472616e7366657220746f20746865207a65726f2061646460008301527f72657373000000000000000000000000000000000000000000000000000000006020830152604082019050919050565b6000613ad9601983614842565b91507f4552433732313a20617070726f766520746f2063616c6c6572000000000000006000830152602082019050919050565b6000613b19602683614842565b91507f416464726573733a20696e73756666696369656e742062616c616e636520666f60008301527f722063616c6c00000000000000000000000000000000000000000000000000006020830152604082019050919050565b6000613b7f602c83614842565b91507f4552433732313a206f70657261746f7220717565727920666f72206e6f6e657860008301527f697374656e7420746f6b656e00000000000000000000000000000000000000006020830152604082019050919050565b6000613be5603883614842565b91507f4552433732313a20617070726f76652063616c6c6572206973206e6f74206f7760008301527f6e6572206e6f7220617070726f76656420666f7220616c6c00000000000000006020830152604082019050919050565b6000613c4b601f83614842565b91507f4f6e6c79206f776e6572206f66204e46542063616e20657870697265206974006000830152602082019050919050565b6000613c8b602a83614842565b91507f4552433732313a2062616c616e636520717565727920666f7220746865207a6560008301527f726f2061646472657373000000000000000000000000000000000000000000006020830152604082019050919050565b6000613cf1601883614842565b91507f6e6f207375636820657870657269656e636520746f6b656e00000000000000006000830152602082019050919050565b6000613d31602283614842565b91507f456e756d657261626c654d61703a20696e646578206f7574206f6620626f756e60008301527f64730000000000000000000000000000000000000000000000000000000000006020830152604082019050919050565b6000613d97602083614842565b91507f4552433732313a206d696e7420746f20746865207a65726f20616464726573736000830152602082019050919050565b6000613dd7602c83614842565b91507f4552433732313a20617070726f76656420717565727920666f72206e6f6e657860008301527f697374656e7420746f6b656e00000000000000000000000000000000000000006020830152604082019050919050565b6000613e3d602c83614842565b91507f4552433732314d657461646174613a2055524920736574206f66206e6f6e657860008301527f697374656e7420746f6b656e00000000000000000000000000000000000000006020830152604082019050919050565b6000613ea3602083614842565b91507f4f776e61626c653a2063616c6c6572206973206e6f7420746865206f776e65726000830152602082019050919050565b6000613ee3602983614842565b91507f4552433732313a207472616e73666572206f6620746f6b656e2074686174206960008301527f73206e6f74206f776e00000000000000000000000000000000000000000000006020830152604082019050919050565b6000613f49602f83614842565b91507f4552433732314d657461646174613a2055524920717565727920666f72206e6f60008301527f6e6578697374656e7420746f6b656e00000000000000000000000000000000006020830152604082019050919050565b6000613faf601a83614842565b91507f657870657269656e636520616c726561647920657870697265640000000000006000830152602082019050919050565b6000613fef602183614842565b91507f4552433732313a20617070726f76616c20746f2063757272656e74206f776e6560008301527f72000000000000000000000000000000000000000000000000000000000000006020830152604082019050919050565b6000614055601283614842565b91507f657870657269656e6365206578706972656400000000000000000000000000006000830152602082019050919050565b6000614095603183614842565b91507f4552433732313a207472616e736665722063616c6c6572206973206e6f74206f60008301527f776e6572206e6f7220617070726f7665640000000000000000000000000000006020830152604082019050919050565b60006140fb601d83614842565b91507f416464726573733a2063616c6c20746f206e6f6e2d636f6e74726163740000006000830152602082019050919050565b600061413b601f83614842565b91507f5265656e7472616e637947756172643a207265656e7472616e742063616c6c006000830152602082019050919050565b600061417b603e83614842565b91507f596f752063616e277420736176652061206361726420617320612074656d706c60008301527f617465206966206974277320616c726561647920612074656d706c61746500006020830152604082019050919050565b6141dd816148e4565b82525050565b60006141ef82846137ac565b915081905092915050565b60006142068285613843565b91506142128284613843565b91508190509392505050565b60006020820190506142336000830184613755565b92915050565b600060808201905061424e6000830187613746565b61425b6020830186613755565b61426860408301856141d4565b818103606083015261427a8184613773565b905095945050505050565b600060408201905061429a6000830185613755565b81810360208301526142ac818461380a565b90509392505050565b60006040820190506142ca6000830185613755565b6142d760208301846141d4565b9392505050565b60006020820190506142f36000830184613764565b92915050565b600060208201905061430e60008301846137dd565b92915050565b600060208201905061432960008301846137ec565b92915050565b60006020820190508181036000830152614349818461380a565b905092915050565b6000602082019050818103600083015261436a81613874565b9050919050565b6000602082019050818103600083015261438a816138da565b9050919050565b600060208201905081810360008301526143aa8161391a565b9050919050565b600060208201905081810360008301526143ca8161395a565b9050919050565b600060208201905081810360008301526143ea816139c0565b9050919050565b6000602082019050818103600083015261440a81613a26565b9050919050565b6000602082019050818103600083015261442a81613a66565b9050919050565b6000602082019050818103600083015261444a81613acc565b9050919050565b6000602082019050818103600083015261446a81613b0c565b9050919050565b6000602082019050818103600083015261448a81613b72565b9050919050565b600060208201905081810360008301526144aa81613bd8565b9050919050565b600060208201905081810360008301526144ca81613c3e565b9050919050565b600060208201905081810360008301526144ea81613c7e565b9050919050565b6000602082019050818103600083015261450a81613ce4565b9050919050565b6000602082019050818103600083015261452a81613d24565b9050919050565b6000602082019050818103600083015261454a81613d8a565b9050919050565b6000602082019050818103600083015261456a81613dca565b9050919050565b6000602082019050818103600083015261458a81613e30565b9050919050565b600060208201905081810360008301526145aa81613e96565b9050919050565b600060208201905081810360008301526145ca81613ed6565b9050919050565b600060208201905081810360008301526145ea81613f3c565b9050919050565b6000602082019050818103600083015261460a81613fa2565b9050919050565b6000602082019050818103600083015261462a81613fe2565b9050919050565b6000602082019050818103600083015261464a81614048565b9050919050565b6000602082019050818103600083015261466a81614088565b9050919050565b6000602082019050818103600083015261468a816140ee565b9050919050565b600060208201905081810360008301526146aa8161412e565b9050919050565b600060208201905081810360008301526146ca8161416e565b9050919050565b60006020820190506146e660008301846141d4565b92915050565b600060a08201905061470160008301886141d4565b61470e6020830187613755565b61471b6040830186613755565b61472860608301856141d4565b61473560808301846141d4565b9695505050505050565b600060808201905061475460008301876141d4565b6147616020830186613755565b8181036040830152614773818561380a565b905061478260608301846137fb565b95945050505050565b6000604051905081810181811067ffffffffffffffff821117156147ae57600080fd5b8060405250919050565b600067ffffffffffffffff8211156147cf57600080fd5b601f19601f8301169050602081019050919050565b600067ffffffffffffffff8211156147fb57600080fd5b601f19601f8301169050602081019050919050565b600081519050919050565b600081519050919050565b600082825260208201905092915050565b600081905092915050565b600082825260208201905092915050565b600081905092915050565b6000614869826148c4565b9050919050565b600061487b826148c4565b9050919050565b60008115159050919050565b60007fffffffff0000000000000000000000000000000000000000000000000000000082169050919050565b6000819050919050565b600073ffffffffffffffffffffffffffffffffffffffff82169050919050565b6000819050919050565b60006148f982614900565b9050919050565b600061490b826148c4565b9050919050565b600061491d82614924565b9050919050565b600061492f826148c4565b9050919050565b82818337600083830152505050565b60005b83811015614963578082015181840152602081019050614948565b83811115614972576000848401525b50505050565b6000601f19601f8301169050919050565b6149928161485e565b811461499d57600080fd5b50565b6149a981614882565b81146149b457600080fd5b50565b6149c08161488e565b81146149cb57600080fd5b50565b6149d7816148ba565b81146149e257600080fd5b50565b6149ee816148e4565b81146149f957600080fd5b5056fe4552433732313a207472616e7366657220746f206e6f6e20455243373231526563656976657220696d706c656d656e7465724552433732313a206f776e657220717565727920666f72206e6f6e6578697374656e7420746f6b656ea264697066735822122046d291b804130a178ce40070ceb93e71473d8736752b5032eaa66f4ed1ed9f4664736f6c634300060c003360806040523480156200001157600080fd5b50600062000024620001ab60201b60201c565b9050806000806101000a81548173ffffffffffffffffffffffffffffffffffffffff021916908373ffffffffffffffffffffffffffffffffffffffff1602179055508073ffffffffffffffffffffffffffffffffffffffff16600073ffffffffffffffffffffffffffffffffffffffff167f8be0079c531659141344cd1fd0a4f28419497f9722a3daafe3b4186f6b6457e060405160405180910390a35060018081905550620000d3620001b3565b6040518060400160405280600073ffffffffffffffffffffffffffffffffffffffff168152602001604051806020016040528060008152508152509050600681908060018154018082558091505060019003906000526020600020906002020160009091909190915060008201518160000160006101000a81548173ffffffffffffffffffffffffffffffffffffffff021916908373ffffffffffffffffffffffffffffffffffffffff1602179055506020820151816001019080519060200190620001a1929190620001e3565b5050505062000289565b600033905090565b6040518060400160405280600073ffffffffffffffffffffffffffffffffffffffff168152602001606081525090565b828054600181600116156101000203166002900490600052602060002090601f016020900481019282601f106200022657805160ff191683800117855562000257565b8280016001018555821562000257579182015b828111156200025657825182559160200191906001019062000239565b5b5090506200026691906200026a565b5090565b5b80821115620002855760008160009055506001016200026b565b5090565b6112d180620002996000396000f3fe608060405234801561001057600080fd5b50600436106100b35760003560e01c806387bedcfb1161007157806387bedcfb1461017a5780638da5cb5b146101aa578063a20b8d5d146101c8578063be8b3f68146101f9578063f2fde38b14610229578063fadf7ab014610245576100b3565b8062d463c7146100b8578063314c1271146100e8578063430e9f681461011857806365ff4e3114610136578063715018a6146101545780637f61c5f41461015e575b600080fd5b6100d260048036038101906100cd9190610cd9565b610275565b6040516100df91906110f8565b60405180910390f35b61010260048036038101906100fd9190610d2d565b610421565b60405161010f91906110f8565b60405180910390f35b610120610439565b60405161012d91906110f8565b60405180910390f35b61013e610446565b60405161014b919061103b565b60405180910390f35b61015c610606565b005b61017860048036038101906101739190610d2d565b610740565b005b610194600480360381019061018f9190610d2d565b6107fd565b6040516101a191906110f8565b60405180910390f35b6101b2610815565b6040516101bf9190610ff0565b60405180910390f35b6101e260048036038101906101dd9190610d2d565b61083e565b6040516101f092919061100b565b60405180910390f35b610213600480360381019061020e9190610d2d565b610927565b60405161022091906110f8565b60405180910390f35b610243600480360381019061023e9190610cb0565b61093f565b005b61025f600480360381019061025a9190610d2d565b610ae8565b60405161026c919061105d565b60405180910390f35b600061027f610b08565b73ffffffffffffffffffffffffffffffffffffffff1661029d610815565b73ffffffffffffffffffffffffffffffffffffffff16146102f3576040517f08c379a00000000000000000000000000000000000000000000000000000000081526004016102ea906110b8565b60405180910390fd5b60026001541415610339576040517f08c379a0000000000000000000000000000000000000000000000000000000008152600401610330906110d8565b60405180910390fd5b6002600181905550610349610b65565b60405180604001604052808573ffffffffffffffffffffffffffffffffffffffff168152602001848152509050600681908060018154018082558091505060019003906000526020600020906002020160009091909190915060008201518160000160006101000a81548173ffffffffffffffffffffffffffffffffffffffff021916908373ffffffffffffffffffffffffffffffffffffffff1602179055506020820151816001019080519060200190610405929190610b95565b5050506001600680549050039150506001808190555092915050565b60056020528060005260406000206000915090505481565b6000600680549050905090565b60608060016006805490500367ffffffffffffffff8111801561046857600080fd5b506040519080825280602002602001820160405280156104a257816020015b61048f610b65565b8152602001906001900390816104875790505b5090506000600190505b6006805490508110156105fe57600681815481106104c657fe5b90600052602060002090600202016040518060400160405290816000820160009054906101000a900473ffffffffffffffffffffffffffffffffffffffff1673ffffffffffffffffffffffffffffffffffffffff1673ffffffffffffffffffffffffffffffffffffffff168152602001600182018054600181600116156101000203166002900480601f0160208091040260200160405190810160405280929190818152602001828054600181600116156101000203166002900480156105ce5780601f106105a3576101008083540402835291602001916105ce565b820191906000526020600020905b8154815290600101906020018083116105b157829003601f168201915b5050505050815250508260018303815181106105e657fe5b602002602001018190525080806001019150506104ac565b508091505090565b61060e610b08565b73ffffffffffffffffffffffffffffffffffffffff1661062c610815565b73ffffffffffffffffffffffffffffffffffffffff1614610682576040517f08c379a0000000000000000000000000000000000000000000000000000000008152600401610679906110b8565b60405180910390fd5b600073ffffffffffffffffffffffffffffffffffffffff1660008054906101000a900473ffffffffffffffffffffffffffffffffffffffff1673ffffffffffffffffffffffffffffffffffffffff167f8be0079c531659141344cd1fd0a4f28419497f9722a3daafe3b4186f6b6457e060405160405180910390a360008060006101000a81548173ffffffffffffffffffffffffffffffffffffffff021916908373ffffffffffffffffffffffffffffffffffffffff160217905550565b610748610b08565b73ffffffffffffffffffffffffffffffffffffffff16610766610815565b73ffffffffffffffffffffffffffffffffffffffff16146107bc576040517f08c379a00000000000000000000000000000000000000000000000000000000081526004016107b3906110b8565b60405180910390fd5b6107e360016005600084815260200190815260200160002054610b1090919063ffffffff16565b600560008381526020019081526020016000208190555050565b60046020528060005260406000206000915090505481565b60008060009054906101000a900473ffffffffffffffffffffffffffffffffffffffff16905090565b6006818154811061084b57fe5b90600052602060002090600202016000915090508060000160009054906101000a900473ffffffffffffffffffffffffffffffffffffffff1690806001018054600181600116156101000203166002900480601f01602080910402602001604051908101604052809291908181526020018280546001816001161561010002031660029004801561091d5780601f106108f25761010080835404028352916020019161091d565b820191906000526020600020905b81548152906001019060200180831161090057829003601f168201915b5050505050905082565b60036020528060005260406000206000915090505481565b610947610b08565b73ffffffffffffffffffffffffffffffffffffffff16610965610815565b73ffffffffffffffffffffffffffffffffffffffff16146109bb576040517f08c379a00000000000000000000000000000000000000000000000000000000081526004016109b2906110b8565b60405180910390fd5b600073ffffffffffffffffffffffffffffffffffffffff168173ffffffffffffffffffffffffffffffffffffffff161415610a2b576040517f08c379a0000000000000000000000000000000000000000000000000000000008152600401610a2290611078565b60405180910390fd5b8073ffffffffffffffffffffffffffffffffffffffff1660008054906101000a900473ffffffffffffffffffffffffffffffffffffffff1673ffffffffffffffffffffffffffffffffffffffff167f8be0079c531659141344cd1fd0a4f28419497f9722a3daafe3b4186f6b6457e060405160405180910390a3806000806101000a81548173ffffffffffffffffffffffffffffffffffffffff021916908373ffffffffffffffffffffffffffffffffffffffff16021790555050565b60026020528060005260406000206000915054906101000a900460ff1681565b600033905090565b600080828401905083811015610b5b576040517f08c379a0000000000000000000000000000000000000000000000000000000008152600401610b5290611098565b60405180910390fd5b8091505092915050565b6040518060400160405280600073ffffffffffffffffffffffffffffffffffffffff168152602001606081525090565b828054600181600116156101000203166002900490600052602060002090601f016020900481019282601f10610bd657805160ff1916838001178555610c04565b82800160010185558215610c04579182015b82811115610c03578251825591602001919060010190610be8565b5b509050610c119190610c15565b5090565b5b80821115610c2e576000816000905550600101610c16565b5090565b600081359050610c418161126d565b92915050565b600082601f830112610c5857600080fd5b8135610c6b610c6682611140565b611113565b91508082526020830160208301858383011115610c8757600080fd5b610c9283828461121a565b50505092915050565b600081359050610caa81611284565b92915050565b600060208284031215610cc257600080fd5b6000610cd084828501610c32565b91505092915050565b60008060408385031215610cec57600080fd5b6000610cfa85828601610c32565b925050602083013567ffffffffffffffff811115610d1757600080fd5b610d2385828601610c47565b9150509250929050565b600060208284031215610d3f57600080fd5b6000610d4d84828501610c9b565b91505092915050565b6000610d628383610fa4565b905092915050565b610d73816111d2565b82525050565b610d82816111d2565b82525050565b6000610d938261117c565b610d9d818561119f565b935083602082028501610daf8561116c565b8060005b85811015610deb5784840389528151610dcc8582610d56565b9450610dd783611192565b925060208a01995050600181019050610db3565b50829750879550505050505092915050565b610e06816111e4565b82525050565b6000610e1782611187565b610e2181856111b0565b9350610e31818560208601611229565b610e3a8161125c565b840191505092915050565b6000610e5082611187565b610e5a81856111c1565b9350610e6a818560208601611229565b610e738161125c565b840191505092915050565b6000610e8b6026836111c1565b91507f4f776e61626c653a206e6577206f776e657220697320746865207a65726f206160008301527f64647265737300000000000000000000000000000000000000000000000000006020830152604082019050919050565b6000610ef1601b836111c1565b91507f536166654d6174683a206164646974696f6e206f766572666c6f7700000000006000830152602082019050919050565b6000610f316020836111c1565b91507f4f776e61626c653a2063616c6c6572206973206e6f7420746865206f776e65726000830152602082019050919050565b6000610f71601f836111c1565b91507f5265656e7472616e637947756172643a207265656e7472616e742063616c6c006000830152602082019050919050565b6000604083016000830151610fbc6000860182610d6a565b5060208301518482036020860152610fd48282610e0c565b9150508091505092915050565b610fea81611210565b82525050565b60006020820190506110056000830184610d79565b92915050565b60006040820190506110206000830185610d79565b81810360208301526110328184610e45565b90509392505050565b600060208201905081810360008301526110558184610d88565b905092915050565b60006020820190506110726000830184610dfd565b92915050565b6000602082019050818103600083015261109181610e7e565b9050919050565b600060208201905081810360008301526110b181610ee4565b9050919050565b600060208201905081810360008301526110d181610f24565b9050919050565b600060208201905081810360008301526110f181610f64565b9050919050565b600060208201905061110d6000830184610fe1565b92915050565b6000604051905081810181811067ffffffffffffffff8211171561113657600080fd5b8060405250919050565b600067ffffffffffffffff82111561115757600080fd5b601f19601f8301169050602081019050919050565b6000819050602082019050919050565b600081519050919050565b600081519050919050565b6000602082019050919050565b600082825260208201905092915050565b600082825260208201905092915050565b600082825260208201905092915050565b60006111dd826111f0565b9050919050565b60008115159050919050565b600073ffffffffffffffffffffffffffffffffffffffff82169050919050565b6000819050919050565b82818337600083830152505050565b60005b8381101561124757808201518184015260208101905061122c565b83811115611256576000848401525b50505050565b6000601f19601f8301169050919050565b611276816111d2565b811461128157600080fd5b50565b61128d81611210565b811461129857600080fd5b5056fea26469706673582212208adac029f9c3862cb19927ea0a9d28ec3efca9beded03e0a716e00231a3e1a4864736f6c634300060c003360806040523480156200001157600080fd5b506040516200151d3803806200151d833981810160405260208110156200003757600080fd5b81019080805190602001909291905050506040518060400160405280600781526020017f612d526f79616c000000000000000000000000000000000000000000000000008152506040518060400160405280600481526020017f61525850000000000000000000000000000000000000000000000000000000008152508160039080519060200190620000cc92919062000389565b508060049080519060200190620000e592919062000389565b506012600560006101000a81548160ff021916908360ff16021790555050506200011633826200011d60201b60201c565b506200042f565b600073ffffffffffffffffffffffffffffffffffffffff168273ffffffffffffffffffffffffffffffffffffffff161415620001c1576040517f08c379a000000000000000000000000000000000000000000000000000000000815260040180806020018281038252601f8152602001807f45524332303a206d696e7420746f20746865207a65726f20616464726573730081525060200191505060405180910390fd5b620001d560008383620002fb60201b60201c565b620001f1816002546200030060201b620009a01790919060201c565b6002819055506200024f816000808573ffffffffffffffffffffffffffffffffffffffff1673ffffffffffffffffffffffffffffffffffffffff168152602001908152602001600020546200030060201b620009a01790919060201c565b6000808473ffffffffffffffffffffffffffffffffffffffff1673ffffffffffffffffffffffffffffffffffffffff168152602001908152602001600020819055508173ffffffffffffffffffffffffffffffffffffffff16600073ffffffffffffffffffffffffffffffffffffffff167fddf252ad1be2c89b69c2b068fc378daa952ba7f163c4a11628f55a4df523b3ef836040518082815260200191505060405180910390a35050565b505050565b6000808284019050838110156200037f576040517f08c379a000000000000000000000000000000000000000000000000000000000815260040180806020018281038252601b8152602001807f536166654d6174683a206164646974696f6e206f766572666c6f77000000000081525060200191505060405180910390fd5b8091505092915050565b828054600181600116156101000203166002900490600052602060002090601f016020900481019282601f10620003cc57805160ff1916838001178555620003fd565b82800160010185558215620003fd579182015b82811115620003fc578251825591602001919060010190620003df565b5b5090506200040c919062000410565b5090565b5b808211156200042b57600081600090555060010162000411565b5090565b6110de806200043f6000396000f3fe608060405234801561001057600080fd5b50600436106100a95760003560e01c80633950935111610071578063395093511461025857806370a08231146102bc57806395d89b4114610314578063a457c2d714610397578063a9059cbb146103fb578063dd62ed3e1461045f576100a9565b806306fdde03146100ae578063095ea7b31461013157806318160ddd1461019557806323b872dd146101b3578063313ce56714610237575b600080fd5b6100b66104d7565b6040518080602001828103825283818151815260200191508051906020019080838360005b838110156100f65780820151818401526020810190506100db565b50505050905090810190601f1680156101235780820380516001836020036101000a031916815260200191505b509250505060405180910390f35b61017d6004803603604081101561014757600080fd5b81019080803573ffffffffffffffffffffffffffffffffffffffff16906020019092919080359060200190929190505050610579565b60405180821515815260200191505060405180910390f35b61019d610597565b6040518082815260200191505060405180910390f35b61021f600480360360608110156101c957600080fd5b81019080803573ffffffffffffffffffffffffffffffffffffffff169060200190929190803573ffffffffffffffffffffffffffffffffffffffff169060200190929190803590602001909291905050506105a1565b60405180821515815260200191505060405180910390f35b61023f61067a565b604051808260ff16815260200191505060405180910390f35b6102a46004803603604081101561026e57600080fd5b81019080803573ffffffffffffffffffffffffffffffffffffffff16906020019092919080359060200190929190505050610691565b60405180821515815260200191505060405180910390f35b6102fe600480360360208110156102d257600080fd5b81019080803573ffffffffffffffffffffffffffffffffffffffff169060200190929190505050610744565b6040518082815260200191505060405180910390f35b61031c61078c565b6040518080602001828103825283818151815260200191508051906020019080838360005b8381101561035c578082015181840152602081019050610341565b50505050905090810190601f1680156103895780820380516001836020036101000a031916815260200191505b509250505060405180910390f35b6103e3600480360360408110156103ad57600080fd5b81019080803573ffffffffffffffffffffffffffffffffffffffff1690602001909291908035906020019092919050505061082e565b60405180821515815260200191505060405180910390f35b6104476004803603604081101561041157600080fd5b81019080803573ffffffffffffffffffffffffffffffffffffffff169060200190929190803590602001909291905050506108fb565b60405180821515815260200191505060405180910390f35b6104c16004803603604081101561047557600080fd5b81019080803573ffffffffffffffffffffffffffffffffffffffff169060200190929190803573ffffffffffffffffffffffffffffffffffffffff169060200190929190505050610919565b6040518082815260200191505060405180910390f35b606060038054600181600116156101000203166002900480601f01602080910402602001604051908101604052809291908181526020018280546001816001161561010002031660029004801561056f5780601f106105445761010080835404028352916020019161056f565b820191906000526020600020905b81548152906001019060200180831161055257829003601f168201915b5050505050905090565b600061058d610586610a28565b8484610a30565b6001905092915050565b6000600254905090565b60006105ae848484610c27565b61066f846105ba610a28565b61066a8560405180606001604052806028815260200161101360289139600160008b73ffffffffffffffffffffffffffffffffffffffff1673ffffffffffffffffffffffffffffffffffffffff1681526020019081526020016000206000610620610a28565b73ffffffffffffffffffffffffffffffffffffffff1673ffffffffffffffffffffffffffffffffffffffff16815260200190815260200160002054610ee89092919063ffffffff16565b610a30565b600190509392505050565b6000600560009054906101000a900460ff16905090565b600061073a61069e610a28565b8461073585600160006106af610a28565b73ffffffffffffffffffffffffffffffffffffffff1673ffffffffffffffffffffffffffffffffffffffff16815260200190815260200160002060008973ffffffffffffffffffffffffffffffffffffffff1673ffffffffffffffffffffffffffffffffffffffff168152602001908152602001600020546109a090919063ffffffff16565b610a30565b6001905092915050565b60008060008373ffffffffffffffffffffffffffffffffffffffff1673ffffffffffffffffffffffffffffffffffffffff168152602001908152602001600020549050919050565b606060048054600181600116156101000203166002900480601f0160208091040260200160405190810160405280929190818152602001828054600181600116156101000203166002900480156108245780601f106107f957610100808354040283529160200191610824565b820191906000526020600020905b81548152906001019060200180831161080757829003601f168201915b5050505050905090565b60006108f161083b610a28565b846108ec856040518060600160405280602581526020016110846025913960016000610865610a28565b73ffffffffffffffffffffffffffffffffffffffff1673ffffffffffffffffffffffffffffffffffffffff16815260200190815260200160002060008a73ffffffffffffffffffffffffffffffffffffffff1673ffffffffffffffffffffffffffffffffffffffff16815260200190815260200160002054610ee89092919063ffffffff16565b610a30565b6001905092915050565b600061090f610908610a28565b8484610c27565b6001905092915050565b6000600160008473ffffffffffffffffffffffffffffffffffffffff1673ffffffffffffffffffffffffffffffffffffffff16815260200190815260200160002060008373ffffffffffffffffffffffffffffffffffffffff1673ffffffffffffffffffffffffffffffffffffffff16815260200190815260200160002054905092915050565b600080828401905083811015610a1e576040517f08c379a000000000000000000000000000000000000000000000000000000000815260040180806020018281038252601b8152602001807f536166654d6174683a206164646974696f6e206f766572666c6f77000000000081525060200191505060405180910390fd5b8091505092915050565b600033905090565b600073ffffffffffffffffffffffffffffffffffffffff168373ffffffffffffffffffffffffffffffffffffffff161415610ab6576040517f08c379a00000000000000000000000000000000000000000000000000000000081526004018080602001828103825260248152602001806110606024913960400191505060405180910390fd5b600073ffffffffffffffffffffffffffffffffffffffff168273ffffffffffffffffffffffffffffffffffffffff161415610b3c576040517f08c379a0000000000000000000000000000000000000000000000000000000008152600401808060200182810382526022815260200180610fcb6022913960400191505060405180910390fd5b80600160008573ffffffffffffffffffffffffffffffffffffffff1673ffffffffffffffffffffffffffffffffffffffff16815260200190815260200160002060008473ffffffffffffffffffffffffffffffffffffffff1673ffffffffffffffffffffffffffffffffffffffff168152602001908152602001600020819055508173ffffffffffffffffffffffffffffffffffffffff168373ffffffffffffffffffffffffffffffffffffffff167f8c5be1e5ebec7d5bd14f71427d1e84f3dd0314c0f7b2291e5b200ac8c7c3b925836040518082815260200191505060405180910390a3505050565b600073ffffffffffffffffffffffffffffffffffffffff168373ffffffffffffffffffffffffffffffffffffffff161415610cad576040517f08c379a000000000000000000000000000000000000000000000000000000000815260040180806020018281038252602581526020018061103b6025913960400191505060405180910390fd5b600073ffffffffffffffffffffffffffffffffffffffff168273ffffffffffffffffffffffffffffffffffffffff161415610d33576040517f08c379a0000000000000000000000000000000000000000000000000000000008152600401808060200182810382526023815260200180610fa86023913960400191505060405180910390fd5b610d3e838383610fa2565b610da981604051806060016040528060268152602001610fed602691396000808773ffffffffffffffffffffffffffffffffffffffff1673ffffffffffffffffffffffffffffffffffffffff16815260200190815260200160002054610ee89092919063ffffffff16565b6000808573ffffffffffffffffffffffffffffffffffffffff1673ffffffffffffffffffffffffffffffffffffffff16815260200190815260200160002081905550610e3c816000808573ffffffffffffffffffffffffffffffffffffffff1673ffffffffffffffffffffffffffffffffffffffff168152602001908152602001600020546109a090919063ffffffff16565b6000808473ffffffffffffffffffffffffffffffffffffffff1673ffffffffffffffffffffffffffffffffffffffff168152602001908152602001600020819055508173ffffffffffffffffffffffffffffffffffffffff168373ffffffffffffffffffffffffffffffffffffffff167fddf252ad1be2c89b69c2b068fc378daa952ba7f163c4a11628f55a4df523b3ef836040518082815260200191505060405180910390a3505050565b6000838311158290610f95576040517f08c379a00000000000000000000000000000000000000000000000000000000081526004018080602001828103825283818151815260200191508051906020019080838360005b83811015610f5a578082015181840152602081019050610f3f565b50505050905090810190601f168015610f875780820380516001836020036101000a031916815260200191505b509250505060405180910390fd5b5082840390509392505050565b50505056fe45524332303a207472616e7366657220746f20746865207a65726f206164647265737345524332303a20617070726f766520746f20746865207a65726f206164647265737345524332303a207472616e7366657220616d6f756e7420657863656564732062616c616e636545524332303a207472616e7366657220616d6f756e74206578636565647320616c6c6f77616e636545524332303a207472616e736665722066726f6d20746865207a65726f206164647265737345524332303a20617070726f76652066726f6d20746865207a65726f206164647265737345524332303a2064656372656173656420616c6c6f77616e63652062656c6f77207a65726fa2646970667358221220dcb83fcf94bdf94223150d0908d6981b0513f3f171ddd4dfcb6c9ac2abfd51ad64736f6c634300060c0033",
  "immutableReferences": {},
  "source": "//SPDX-License-Identifier: MIT\npragma solidity ^0.6.0;\npragma experimental ABIEncoderV2;\n\nimport '@openzeppelin/contracts/token/ERC721/IERC721Metadata.sol';\nimport '@openzeppelin/contracts/token/ERC721/ERC721.sol';\nimport '@openzeppelin/contracts/token/ERC20/ERC20.sol';\nimport '@openzeppelin/contracts/utils/Counters.sol';\nimport '@openzeppelin/contracts/utils/ReentrancyGuard.sol';\nimport '@openzeppelin/contracts/access/Ownable.sol';\nimport '@opengsn/gsn/contracts/BaseRelayRecipient.sol';\n\nimport './TemplatesRegistry.sol';\nimport './IntooTVRoyalty.sol';\n\n/**\n * @title IntooTV TicketFactory\n *\n * @dev Implementation of the TicketFactory contract, which is a Factory and Registry of NFT XP Cards and XP Tickets\n * @author IntooTV\n */\ncontract TicketFactory is BaseRelayRecipient, Ownable, IERC721Metadata, ERC721, ReentrancyGuard {\n  string public override versionRecipient = \"2.0.0\";\n\n  using Counters for Counters.Counter;\n\n  Counters.Counter private tokenIds; // to keep track of the number of NFTs we have minted\n\n  mapping(uint256 => bool) public expiredExperience;\n  mapping(uint256 => uint256) public ticketsToCards;\n  mapping(uint256 => uint256) public cardsToTemplates;\n  mapping(uint256 => bool) isHost;\n\n  event TicketCreated(\n    uint256 ticketId,\n    address ticketCreator,\n    string props,\n    int256 templateIndex\n  );\n  event ExperienceMatchingCreated(\n    uint256 ticketId,\n    address host,\n    address guest,\n    uint256 hostExperienceAccessId,\n    uint256 guestExperienceAccessId\n  );\n  event ExperienceEnded(uint256 experienceId);\n  event PayoutSent(address addressToPay, uint256 amountToPay);\n\n  TemplatesRegistry public templatesRegistry;\n  IntooTVRoyalty public royaltiesToken;\n\n  // we have xpCollector that later distributes the Host\"s reward share so\n  // that noone tries to hack us by calling functions that redirect the reward\n  // to them. We control where it goes at all times\n  constructor(string memory _name, string memory _symbol, address _forwarder)\n    public\n    ERC721(_name, _symbol)\n  {\n    trustedForwarder = _forwarder;\n      \n    templatesRegistry = new TemplatesRegistry();\n    royaltiesToken = new IntooTVRoyalty(500 * 1e18);\n  }\n\n      /**\n     * return the sender of this call.\n     * if the call came through our trusted forwarder, return the original sender.\n     * otherwise, return `msg.sender`.\n     * should be used in the contract anywhere instead of msg.sender\n     */\n    function _msgSender() internal override (BaseRelayRecipient, Context) view returns (address payable ret) {\n        if (msg.data.length >= 24 && isTrustedForwarder(msg.sender)) {\n            // At this point we know that the sender is a trusted forwarder,\n            // so we trust that the last bytes of msg.data are the verified sender address.\n            // extract sender address from the end of msg.data\n            assembly {\n                ret := shr(96,calldataload(sub(calldatasize(),20)))\n            }\n        } else {\n            return msg.sender;\n        }\n    }\n\n    /**\n     * return the msg.data of this call.\n     * if the call came through our trusted forwarder, then the real sender was appended as the last 20 bytes\n     * of the msg.data - so this method will strip those 20 bytes off.\n     * otherwise, return `msg.data`\n     * should be used in the contract instead of msg.data, where the difference matters (e.g. when explicitly\n     * signing or hashing the\n     */\n    function _msgData() internal override (BaseRelayRecipient, Context) virtual view returns (bytes memory ret) {\n        if (msg.data.length >= 24 && isTrustedForwarder(msg.sender)) {\n            // At this point we know that the sender is a trusted forwarder,\n            // we copy the msg.data , except the last 20 bytes (and update the total length)\n            assembly {\n                let ptr := mload(0x40)\n                // copy only size-20 bytes\n                let size := sub(calldatasize(),20)\n                // structure RLP data as <offset> <length> <bytes>\n                mstore(ptr, 0x20)\n                mstore(add(ptr,32), size)\n                calldatacopy(add(ptr,64), 0, size)\n                return(ptr, add(size,64))\n            }\n        } else {\n            return msg.data;\n        }\n    }\n\n  // this function is responsible for minting the ticket NFT\n  // it is the responsibility of the caller to pass the props json schema for ERC721Metadata (_props argument)\n  // _props must include 4 things:\n  // 1. guest avatar (host is not available at this point)\n  // 2. title\n  // 3. description\n  // 4. duration (enum Duration)\n  // find the schema definition to conform to here: https://eips.ethereum.org/EIPS/eip-721\n  function createTicket(\n    address _ticketCreator,\n    string memory _props,\n    int256 _templateIndex,\n    bool _saveAsTemplate\n  ) external payable nonReentrant onlyOwner returns (uint256) {\n    if (_templateIndex > 0 && _saveAsTemplate == true)\n      revert(\"You can't save a card as a template if it's already a template\");\n\n    tokenIds.increment();\n    uint256 newItemId = tokenIds.current();\n\n    _mint(_ticketCreator, newItemId);\n\n    if (_templateIndex <= 0) {\n      _setTokenURI(newItemId, _props);\n    } else if (\n      uint256(_templateIndex) < templatesRegistry.getNumOfTemplates()\n    ) {\n      (address creator, string memory props) = templatesRegistry.experienceTemplates(\n        uint256(_templateIndex)\n      );\n\n      _setTokenURI(newItemId, props);\n\n      cardsToTemplates[newItemId] = uint256(_templateIndex);\n\n      if(templatesRegistry.templateUsages(uint256(_templateIndex)) < 5)\n        _payout(creator, 1 * 1e18);\n\n      templatesRegistry.incrementTemplateUsage(uint256(_templateIndex));\n    } else {\n      revert('Invalid template index provided');\n    }\n\n    if (_saveAsTemplate == true) {\n      templatesRegistry.createTicketTemplate(_ticketCreator, _props);\n    }\n\n    emit TicketCreated(newItemId, _ticketCreator, _props, _templateIndex);\n\n    return newItemId;\n  }\n\n  // anyone can call this. but! only one person at a time can do this\n  // this is a limitation right now. we can fix it later, such that\n  // we will have an array of people interested in hosting\n  // and we then get the guest to pick (based on reputation, for example)\n  // who to go with. They then mint the access tokens\n  // -----\n  // once again, the client is responsible for creating the properties (as per)\n  // schema mentioned earlier, and passing it to this method\n  function createAccessToEvent(\n    uint256 _ticketId,\n    string memory _props,\n    address host\n  ) external nonReentrant returns (bool) {\n    require(_ticketId <= tokenIds.current(), 'no such experience card');\n    require(expiredExperience[_ticketId] == false, 'experience expired');\n\n    tokenIds.increment();\n    uint256 hostItemId = tokenIds.current();\n    tokenIds.increment();\n    uint256 guestItemId = tokenIds.current();\n\n    _mint(host, hostItemId);\n    // this is the original creator of the ticket\n    _mint(ownerOf(_ticketId), guestItemId);\n\n    ticketsToCards[guestItemId] = _ticketId;\n\n    // right now the properties are the same for both the guest and the host\n    // we may want to change this in the future\n    // also, it is not quite economically sensible to mint two NFTs. After all,\n    // the creator of the original ticket can use that as authorization\n    // from collectible pov, it makes sense to mint two NFTs here\n    _setTokenURI(hostItemId, _props);\n    _setTokenURI(guestItemId, _props);\n\n    emit ExperienceMatchingCreated(\n      _ticketId,\n      host,\n      ownerOf(_ticketId),\n      hostItemId,\n      guestItemId\n    );\n\n    return true;\n  }\n\n  function expireExperience(address owner, uint256 _ticketId) external nonReentrant onlyOwner {\n    require(_ticketId <= tokenIds.current(), 'no such experience token');\n    require(\n      expiredExperience[_ticketId] == false,\n      'experience already expired'\n    );\n    require(\n      ownerOf(_ticketId) == owner,\n      'Only owner of NFT can expire it'\n    );\n\n    expiredExperience[_ticketId] = true;\n\n    emit ExperienceEnded(_ticketId);\n  }\n\n  // This same contract is used as a treasury: DAI are sent to this contract which are\n  // in turn sent as royalties to templates creators\n  function _payout(address _addressToPay, uint256 _amountToPay) internal {\n    royaltiesToken.transfer(_addressToPay, _amountToPay);\n\n    emit PayoutSent(_addressToPay, _amountToPay);\n  }\n}\n",
  "sourcePath": "/Users/migrenaa/Desktop/dev/intooTV/contracts-matic/contracts/TicketFactory.sol",
  "compiler": {
    "name": "solc",
    "version": "0.6.12+commit.27d51765.Emscripten.clang"
  },
  "schemaVersion": "3.3.4",
  "updatedAt": "2021-03-24T14:24:35.408Z",
  "networkType": "ethereum",
  "devdoc": {
    "author": "IntooTV",
    "details": "Implementation of the TicketFactory contract, which is a Factory and Registry of NFT XP Cards and XP Tickets",
    "kind": "dev",
    "methods": {
      "approve(address,uint256)": {
        "details": "See {IERC721-approve}."
      },
      "balanceOf(address)": {
        "details": "See {IERC721-balanceOf}."
      },
      "baseURI()": {
        "details": "Returns the base URI set via {_setBaseURI}. This will be automatically added as a prefix in {tokenURI} to each token's URI, or to the token ID if no specific URI is set for that token ID."
      },
      "getApproved(uint256)": {
        "details": "See {IERC721-getApproved}."
      },
      "isApprovedForAll(address,address)": {
        "details": "See {IERC721-isApprovedForAll}."
      },
      "name()": {
        "details": "See {IERC721Metadata-name}."
      },
      "owner()": {
        "details": "Returns the address of the current owner."
      },
      "ownerOf(uint256)": {
        "details": "See {IERC721-ownerOf}."
      },
      "renounceOwnership()": {
        "details": "Leaves the contract without owner. It will not be possible to call `onlyOwner` functions anymore. Can only be called by the current owner. NOTE: Renouncing ownership will leave the contract without an owner, thereby removing any functionality that is only available to the owner."
      },
      "safeTransferFrom(address,address,uint256)": {
        "details": "See {IERC721-safeTransferFrom}."
      },
      "safeTransferFrom(address,address,uint256,bytes)": {
        "details": "See {IERC721-safeTransferFrom}."
      },
      "setApprovalForAll(address,bool)": {
        "details": "See {IERC721-setApprovalForAll}."
      },
      "supportsInterface(bytes4)": {
        "details": "See {IERC165-supportsInterface}. Time complexity O(1), guaranteed to always use less than 30 000 gas."
      },
      "symbol()": {
        "details": "See {IERC721Metadata-symbol}."
      },
      "tokenByIndex(uint256)": {
        "details": "See {IERC721Enumerable-tokenByIndex}."
      },
      "tokenOfOwnerByIndex(address,uint256)": {
        "details": "See {IERC721Enumerable-tokenOfOwnerByIndex}."
      },
      "tokenURI(uint256)": {
        "details": "See {IERC721Metadata-tokenURI}."
      },
      "totalSupply()": {
        "details": "See {IERC721Enumerable-totalSupply}."
      },
      "transferFrom(address,address,uint256)": {
        "details": "See {IERC721-transferFrom}."
      },
      "transferOwnership(address)": {
        "details": "Transfers ownership of the contract to a new account (`newOwner`). Can only be called by the current owner."
      }
    },
    "title": "IntooTV TicketFactory",
    "version": 1
  },
  "userdoc": {
    "kind": "user",
    "methods": {
      "isTrustedForwarder(address)": {
        "notice": "return if the forwarder is trusted to forward relayed transactions to us. the forwarder is required to verify the sender's signature, and verify the call is not a replay."
      }
    },
    "version": 1
  }
}